:020000040800F2
:1000000000000120756500089D2B00089F2B00084B
:10001000A12B0008A32B0008A52B0008000000005E
:10002000000000000000000000000000A72B0008F6
:10003000A92B000800000000AB2B0008AD2B000826
:10004000C5650008C5650008C5650008C5650008E8
:10005000C5650008C5650008C5650008C5650008D8
:10006000C5650008C5650008C5650008C5650008C8
:10007000C5650008C5650008C5650008C5650008B8
:10008000C5650008C5650008C565000800000000DA
:10009000000000000000000000000000712B0008BC
:1000A000C5650008C5650008C5650008C565000888
:1000B000C5650008C5650008C5650008C565000878
:1000C000C5650008C5650008C5650008C565000868
:1000D000C5650008C5650008C5650008000000008A
:1000E000C5650008C5650008C5650008000000007A
:1000F000000000000000000000000000C5650008CE
:1001000000000000C5650008C5650008C565000859
:1001100000000000000000000000000000000000DF
:10012000C5650008C5650008C5650008C565000807
:10013000C56500080000000000000000000000008D
:10014000000000000000000000000000B52B0008C7
:10015000C5650008C5650008C5650008C5650008D7
:10016000C5650008C565000800000000000000002B
:10017000000000000000000000000000000000007F
:1001800000000000C565000800000000000000003D
:04019000C565000839
:1001A0000348044B834202D0034B03B11847704706
:1001B0009402002094020020000000000548064937
:1001C0000B1AD90F01EBA301491002D0034B03B165
:1001D000184770479402002094020020000000009D
:1001E00010B5064C237843B9FFF7DAFF044B13B17F
:1001F0000448AFF300800123237010BD9402002057
:1002000000000000C865000808B5044B1BB1044994
:100210000448AFF30080BDE80840CFE700000000CD
:1002200098020020C865000800B50B4C25681446EC
:10023000EE681A4685B003460D464CB10749009555
:10024000CDE901143046064900F022F800F060FEC6
:1002500004490C46F3E700BF00000020CC6800080A
:10026000DC680008D868000808B513460022FFF7CC
:10027000DBFF00BF0CB400B583B004AB53F8042B14
:10028000019300F09FF903B05DF804EB02B07047F2
:100290000EB410B583B005AB064C53F8042B019394
:1002A0000146206800F08EF903B0BDE8104003B0AD
:1002B000704700BF0000002070B50D4E0D4D761B3D
:1002C000B61006D0002455F8043B01349847A642E6
:1002D000F9D1094E094D761B06F076F9B61006D015
:1002E000002455F8043B01349847A642F9D170BD6B
:1002F00050690008506900085469000850690008F6
:10030000024B0146186800F0BFB800BF0000002093
:10031000024B0146186800F055B800BF00000020ED
:10032000830730B548D0541E002A3FD0CAB20346D6
:1003300001E0013C3AD303F8012B9D07F9D1032CCE
:100340002DD9CDB245EA05250F2C45EA054536D90C
:10035000A4F1100222F00F0C03F1200EE6444FEA44
:10036000121C03F1100242E9045542E90255103211
:100370007245F8D10CF1010214F00C0F03EB0212DC
:1003800004F00F0C13D0ACF1040323F00303043387
:10039000134442F8045B9342FBD10CF003042CB1EC
:1003A000CAB21C4403F8012B9C42FBD130BD644609
:1003B0001346002CF4D1F9E703461446BFE71A466A
:1003C000A446E0E7002958D030B551F8043C83B08A
:1003D000002BA1F10404B8BFE418019001F066FB02
:1003E000284A0198136833B1A3420DD9216804EB60
:1003F000010C63452FD06360146003B0BDE830404A
:1004000001F056BBA34210D81A465B68002BF9D105
:10041000116802EB010C644519D02FD3636054605E
:1004200003B0BDE8304001F043BB116802EB010CA2
:10043000A44516D022D8216804EB010C6345EDD108
:100440001D685B682944C4E900135460D5E723683C
:1004500019441160D1E71D685B682944C4E90013A1
:10046000CAE7246821445418A3421160C5D1D3E9D6
:1004700000432144C2E90013BFE770470C23036027
:10048000BBE700BFB0020020F8B5CD1C25F0030586
:1004900008350C2D38BF0C25002D064623DBA9425C
:1004A00021D8254F01F002FB3A6822B3144603E03D
:1004B00063682246FBB11C4623685B1BF8D40B2BF8
:1004C00015D8636894420CBF3B605360304601F01E
:1004D000EFFA04F10B00231D20F00700C21A01D02F
:1004E0001B1AA350F8BD0C2333600020F8BD236015
:1004F0001C442560EAE77968C9B12946304600F016
:100500009FFB431C0CD0C41C24F00304A04205D064
:10051000211A304600F094FB013001D02560D5E768
:100520000C233046336001F0C3FA0020F8BD30469A
:1005300000F086FB7860E0E7B00200209368013BA2
:10054000002B936011DA10B49469A34209DB0A29E5
:1005500007D01368581C1060197008465DF8044BEA
:1005600070475DF8044B00F0EDBB1368581C106039
:1005700019700846704700BF9BB1F8B51344064692
:100580000F46541E5D1E01E0AC4208D014F8011F56
:100590003A463046FFF7D2FF431CF5D1F8BD0020A4
:1005A000F8BD0020704700BF936810B5144613B91A
:1005B0005360184610BD00F0C3FE0023C4E90133A8
:1005C00010BD00BF2DE9F04F88469FB015461C4670
:1005D000814618B18369002B00F0A280924B9845A8
:1005E00000F0A480914B984500F0B180904B984565
:1005F00008BFD9F80C80B8F80C30180740F19D807E
:10060000D8F81030002B00F0988000230B93297845
:10061000884E059420238DF8313030238DF8323008
:100620000127002974D02C460B4604E014F8013F42
:10063000002B00F08F80252BF8D1B4EB050B40F098
:100640008C802378002B63D000234FF0FF32CDE95C
:100650000723069309938DF85B301C93013404E063
:10066000069A07FA03F3134306932546052214F866
:10067000011B304601F0B4F8831B0028F0D1069B23
:10068000D90644BF20228DF85B2029781A0744BF81
:100690002B228DF85B202A2970D1059A116804322B
:1006A00000290592C0F29B800991697801352E29B5
:1006B00076D0614C0322204601F092F838B1069BB7
:1006C000001B402404FA00F003430693013515F89B
:1006D000011B5A488DF83010062201F081F80028DD
:1006E00000F08380564B002B6DD005AA0092554B2D
:1006F000424606A94846AFF300800390039B0133AE
:1007000006D00B9B039A297813440B9300298AD1B6
:10071000B8F80C305B0617D40B981FB0BDE8F08F0B
:1007200000F0EEFD404B98457FF45CAFD9F80480B3
:10073000B8F80C3018073FF563AF4146484600F063
:1007400065FB00283FF461AF4FF0FF30E5E7D9F8D3
:10075000088050E7B4EB050BDAD0AA46C5F10105D5
:1007600003E0934536D91AF8011F42464846FFF781
:10077000E5FE013005EB0A02F3D1C9E7A1F1300231
:10078000092A94D8099B15F8011F03EB830302EB98
:100790004303A1F13002092AF5D92E29099388D102
:1007A00069782A292BD1059BA9781A680792043306
:1007B000002A05F102000593B8BF4FF0FF3305464C
:1007C000B8BF079375E7059B073323F0070308338A
:1007D000059396E70B9A23785A440B9232E74942E5
:1007E00043F00203099106935FE705AA0092154BB7
:1007F000424606A9484600F0CBF803907EE7A1F1F7
:1008000030020023092A079305F101053FF651AF95
:1008100015F8011F03EB830302EB4303A1F1300240
:10082000092AF5D9079344E72466000804660008FE
:10083000E46500080C6900081469000818690008DC
:10084000000000007905000810B4054C84461346EA
:1008500020685DF8044B0A466146FFF7B3BE00BF4F
:10086000000000202DE9F84F92461F460A698B6868
:10087000DDF828909A42B8BF1A46CAF8002091F8CD
:1008800043300C46064613B10132CAF800202268F4
:1008900091065DD5DAF800300233CAF800302268DC
:1008A00012F0060F11461ED1E168CB1A002BD8BFFB
:1008B000114618DD04F1190B4FF0000805E0E5685A
:1008C000DAF80030ED1A45450CDD01235A46394669
:1008D0003046C847013008F10108F0D14FF0FF3031
:1008E000BDE8F88F216894F84330003B18BF01231E
:1008F0008A060AD5E1185A1C302081F843002244A8
:1009000094F8451082F84310023304F1430239464B
:100910003046C8470130E1D0236803F00603042BBA
:100920001DD0A3682269934225DD4FF000089B1A71
:1009300098441A34002501E045451CDA012322467B
:1009400039463046C847013005F10105F4D1C5E705
:1009500012F0060F12D0003B18BF0123D5E7DAF8DA
:100960000030E1682269C91AA368934221EAE1785C
:10097000DDDC0029DDDC0020BDE8F88FE168DAF875
:100980000030CB1A002BD8BF114693DCABE700BF79
:100990002DE9F0470C4684B09046227E0C9907461C
:1009A000994604F14300002A33D0A2F15803DDB286
:1009B000202D67D8202B65D8DFE813F0DE00640017
:1009C0006400640064006400640064006400640007
:1009D0006400A3006E0064006400640064006E00A4
:1009E000640064006400640021007F00C0006400B3
:1009F0006400AE0064007F0064006400E5002368CA
:100A00001A0640F104810B6862691D1D0D601B68A8
:100A10001A60002382462361CDF80090434603AA62
:100A200021463846FFF71EFF013020D02369524689
:100A300041463846C847013019D02368E068039E14
:100A40009B0719D5831B002B16DD04F1190A00251D
:100A500004E0E068039E831BAB420DDD0123524698
:100A600041463846C847013005F10105F1D14FF044
:100A7000FF3004B0BDE8F087B042B8BF304604B0E4
:100A8000BDE8F087012384F84220236104F1420A83
:100A9000002384F84330BFE723681A0602D45E06B9
:100AA00000F1C1800D682A6804350D601546002AE2
:100AB0006BDBDFF884C10A2610E023681D0640F1D5
:100AC0009C800B681D1D0D601D68DFF86CC16F2ACE
:100AD0000CBF08260A26002384F843306268A2600F
:100AE000002A7FDB236823F004032360002D5BD101
:100AF000002A79D18246082E65D0A0EB0A00206139
:100B00008AE70B680122186804330B6004F1420A7B
:100B100084F842002261BBE70B686268181D086018
:100B2000D3F800A00021504600F05AFE002800F043
:100B30008180A0EB0A0060602061A9E7236843F090
:100B4000200323607822DFF8F4C084F845200A6887
:100B5000151D0D601D0643D4590641D51588DE07C5
:100B600044BF43F020032360002D44D1236823F0C9
:100B7000200323601026AEE7582384F84530DFF8C1
:100B8000B8C02368E3E72368DCE76268A2602D2130
:100B9000002AC5F1000584F8431002DB23F00403AA
:100BA0002360DFF894C00A268246B5FBF6F306FB05
:100BB00013512A461CF801100AF8011DB2421D46C5
:100BC000F3D2082E99D12368D90796D56268236994
:100BD0009A4292DC30230AF8013C0AF1FF3A8CE792
:100BE0001568BCE7002DDFD19CF8003084F8423056
:100BF00004F1420A7FE710266DE713F0400F0B68FF
:100C000003F104050D600CBF1D681D885DE713F03E
:100C1000400F0B68626903F104050D601B6814BF87
:100C20001A801A60F5E60A68B2F9005004320A60C8
:100C30002A463CE760687FE72069000834690008BD
:100C400038B5074D0022044608462A6001F0A4FB8F
:100C5000431C00D038BD2B68002BFBD0236038BD6F
:100C6000B802002010B51A4C002924689AB02ADB7B
:100C7000009004904FF40270ADF80C0013D00139CD
:100C80004FF6FF7002910591ADF80E0069462046BF
:100C900001F016F8421C01DA8B232360009B00222E
:100CA0001A701AB010BD4FF6FF7002910591ADF8A1
:100CB0000E006946204601F003F8431C01DA8B233D
:100CC00023601AB010BD8B2323604FF0FF30F8E78C
:100CD0000000002030B5141E9BB005462CDB4FF4FD
:100CE000027200910491ADF80C2014D04FF6FF7100
:100CF0001A46013CADF80E101E9B029469460594FD
:100D000000F0DEFF421C01DA8B232B60009B0022E7
:100D10001A701BB030BD4FF6FF711A46ADF80E10B9
:100D20001E9B02946946059400F0CAFF431C01DA39
:100D30008B232B601BB030BD8B2303604FF0FF3043
:100D4000F8E700BFF8B50D461446064608B18369BA
:100D500043B3254B9C422AD0244B9C4229D0244BA0
:100D60009C4208BFF468A389A269A2601A0722D531
:100D7000236903B322686169D31AEDB299422F4601
:100D800029DD0133A1680139A160511C2160157072
:100D900062699A4216D0A389DB0701D50A2D11D0CA
:100DA0003846F8BD00F0ACFA0F4B9C42D4D17468C1
:100DB000D9E7B468D7E72146304600F027F838B9BC
:100DC0002369D7E72146304600F034F90028E7D000
:100DD0004FF0FF37E4E72146304600F02BF90028BA
:100DE000F6D122680123CDE72466000804660008D6
:100DF000E465000810B4044C03460A4620685DF818
:100E0000044B1946FFF79EBF000000203C4B70B515
:100E10001D6806460C460DB1AB69E3B1394B9C42E7
:100E20001FD0394B9C424DD0384B9C4208BFEC68D8
:100E3000B4F90C3018079AB219D5216911B312F020
:100E400001002FD00020A06060694042A06100290D
:100E50002ED0002070BD284600F052FA294B9C424B
:100E6000DFD16C68B4F90C3018079AB2E5D4D1061A
:100E70003ED5520728D4216943F00803A3819AB2D2
:100E80000029DCD102F42070B0F5007FD7D02146D4
:100E9000304600F011FCB4F90C3021699AB212F01E
:100EA0000100CFD1950758BF6069A0600029D0D15B
:100EB000120658BF0846CDD543F04003A3814FF03A
:100EC000FF3070BDAC68B3E7616B51B104F144020F
:100ED000914204D03046FFF775FAB4F90C30002285
:100EE000626321690022C4E9001223F02403C3E7EE
:100EF000092243F0400332604FF0FF30A38170BD00
:100F0000000000202466000804660008E46500086C
:100F100008B5062001F082F8012001F053FA00BF65
:100F20008B891A072DE9F0410C4680463FD44A6868
:100F3000002A58DDE66A002E52D00022D8F8005070
:100F4000C8F8002013F4805251D10123216A404691
:100F5000B047431C5ED0A389E66A5F0705D5636886
:100F6000C01A636B0BB1236CC01A216A02460023BE
:100F70004046B047411C3CD1D8F80030002B38D057
:100F80001D2B01D0162B4DD123690022C4E900325C
:100F9000616BC8F8005019B304F14403994202D0C0
:100FA0004046FFF70FFA00206063BDE8F0810E694C
:100FB000B6B10D680E609A070CBF4B690023AD1BDC
:100FC0008B600BE02B463246216AA76A4046B84741
:100FD000B0F1000CA5EB0C05664413DD002DF1DC2F
:100FE0000020BDE8F0810A6C002AA3DCF8E7606D00
:100FF000B3E70023636023692360A389DB04C7D5BB
:101000006065C5E7A38943F040034FF0FF30A3813B
:10101000BDE8F081D8F80030002B9CD01D2B06D005
:10102000162B04D0A38943F04003A381D9E7C8F865
:101030000050D5E738B50B69BBB10D46044608B181
:101040008369B3B10D4B9D4211D00D4B9D4213D01E
:101050000C4B9D4208BFE568B5F90C302BB1294611
:101060002046BDE83840FFF75BBF002038BD65680B
:10107000F2E700F045F9E5E7A568EDE7246600082A
:1010800004660008E465000838B540B30369044607
:10109000E3B1174B1D680DB1AB69CBB1154B9C4249
:1010A0000FD0154B9C4221D0144B9C4208BFEC68DA
:1010B000B4F90C3053B121462846BDE83840FFF75B
:1010C0002FBF6C68B4F90C30002BF4D1002038BD70
:1010D000284600F015F9074B9C42E2D1F1E7084B96
:1010E00008491868BDE8384000F0C2BAAC68DFE7CC
:1010F000000000202466000804660008E46500087B
:10110000E06500083510000800207047014900F034
:10111000AFBA00BF351000080020704770B56822D4
:101120004D1E02FB05F50E4605F17401FFF7ACF903
:10113000044640B100210C30C4E90016A06005F15E
:101140006802FFF7EDF8204670BD00BF274B2DE980
:10115000F0411E68B369074653B348364FF00408A0
:10116000D6E90134013B04D51EE05A1C04F16804A1
:101170001AD0B4F90C50013B002DF6D11C4B65661A
:10118000C4E90055C4E90253C4E90455A561082225
:10119000294604F15C00FFF7C3F8C4E90D55C4E922
:1011A00012552046BDE8F08135682DB12E46D7E7AF
:1011B000304600F01FF8D0E74FF4D6713846FFF7FD
:1011C00063F9044668B10560C0F804800C30294614
:1011D000A06025464FF4D072FFF7A2F834602E4687
:1011E000BEE70C2330603B60DBE700BFE065000832
:1011F0000100FFFF2DE9F84F344B35491A68816231
:1012000090424FF00003C0E91233036504BF01238D
:1012100083610546FFF79AFF68602846FFF796FF4F
:10122000A8602846FFF792FF6F68E8600024042357
:10123000C7E9024308222146C7E90044C7E904443C
:101240007C66BC6107F15C00FFF76AF8DFF88CB0E0
:10125000AE68DFF88CA0DFF88C90DFF88C801D4B37
:10126000C7F828A0C7E9087BC7F82C90C7F83080DA
:101270000822F360C6E90044C6E904447466B46019
:10128000B461214606F15C00FFF74AF8C6E9086B35
:10129000C6E90AA9C6F83080EE680F4BF360C6E9CC
:1012A0000044C6E904447466B460B461214608226F
:1012B00006F15C00FFF734F80123C6E9086BC6E9C4
:1012C0000B98C6F828A0AB61BDE8F88FE065000870
:1012D0000D11000809000100120002008D21000814
:1012E000B5210008F521000815220008024B03492A
:1012F000186800F0BDB900BFE065000835100008AF
:10130000836903B976E77047704700BF704700BF35
:10131000704700BF704700BF024B0349186800F0D8
:1013200087B900BF0000002009110008024B0349E3
:10133000186800F07DB900BF0000002019110008F6
:101340009368002B00F085802DE9F04FB1F90C3047
:101350000C461907804683B0174698B225D52369F5
:101360001BB310F002033D682DD04FF0000ADFF8E8
:10137000BCB25646B9465E453346524628BF5B4628
:101380004046002E52D0216AA76AB847002856DD91
:10139000D9F808301B1A8244361AC9F80830002BD5
:1013A000E9D1002003B0BDE8F08F21464046FFF7A9
:1013B0002DFD002840F03681B4F90C303D6898B21C
:1013C00010F00203D1D110F0010944D14E4600972C
:1013D00046B38205D4F808B040F18380B3455A463D
:1013E00000F2B28010F4906F40F0BF80206801924C
:1013F000494600F0DFFAA368019AA3EB0B012368CA
:10140000A1601344B24623600026009B9868A0EBBD
:101410000A00D14498600028C3D0B4F90C0080B20F
:10142000002ED6D1D5E900960835D1E7D5E900A63A
:101430000835A0E721464046FFF7FCFD80B3B4F92C
:101440000C3043F040034FF0FF30A38103B0BDE800
:10145000F08F002070471E46AA46994618461D4642
:10146000009756B388B34A46D4E904132068B242C1
:1014700028BF3246884205D9A16803EB010B5A45C3
:1014800000F3A680934263DC216AA76A2A4640469D
:10149000B847B0F1000BD2DDB9EB0B09CAD001207F
:1014A000009A9368A3EB0B035D44A6EB0B069360D5
:1014B000002B3FF476AF002ED4D10AF1080353E994
:1014C00002569A460833002EF9D032460A212846A1
:1014D00000F086F9002800F09C800130A0EB05099F
:1014E000C1E720682369984216D86369B34213D8CC
:1014F0006FF00042B24228BF3246216A92FBF3F2FB
:10150000A76A02FB03F340464A46B847B0F1000A17
:1015100095DDA6EB0A0678E7B345DA4628BFB24662
:101520005246494600F046FAA3682268A3EB0A0334
:101530005244A3602260002BEBD121464046FFF7C6
:1015400079FD0028E5D07AE72068B34632464EE7B9
:101550002946019200F02EFA019AA3689B1AA36013
:10156000236813442360934696E723682169A3EB1D
:10157000010B636903EB430A0AEBDA7A0BF101030F
:101580004FEA6A0A33445345524684BF9A4652464C
:1015900043052CD511464046FEF776FF00283BD088
:1015A0005A462169019000F06BF9A289019B22F44F
:1015B000906242F08002A28103EB0B002361AAEB50
:1015C0000B03C4F814A0A3602060B34632460EE7B4
:1015D00029465A4600F0EEF923685B442360214611
:1015E0004046FFF727FD00283FF456AF27E7404667
:1015F00000F060FA03460028DED121694046FEF77C
:10160000E1FEB4F90C300C2223F08003C8F800206E
:1016100017E7721C914627E70C22B4F90C30C8F882
:1016200000200EE74FF0FF30BCE600BF00FCFF7F5C
:101630002DE9F041884600F148070026D7E901541A
:10164000013D0FD4A389012B05F1FF3506D9B4F96B
:101650000E300133204601D0C04706436B1C04F115
:101660006804EFD13F68002FE8D13046BDE8F08133
:101670002DE9F8430746884600F148064FF0000977
:10168000D6E90154013D11D4A389012B05F1FF35A1
:1016900008D9B4F90E300133214603D03846C0478B
:1016A00049EA00096B1C04F16804EDD13668002E8C
:1016B000E6D14846BDE8F883F0B58B890C4699071A
:1016C00097B007D504F147030122C4E9043223602F
:1016D00017B0F0BDB4F90E10002905462DDB6A469F
:1016E00000F0C4FD002827DB019E06F470464FF48D
:1016F0008067A6F50056B6FA86F63946284676097A
:10170000FEF7C2FE30B3A3891A4AAA6243F08003EF
:10171000C4E90407A3812060002ED9D0B4F90E10CB
:10172000284600F0B9FD0028D2D0A38923F0030396
:1017300043F00103A381CBE7A38913F0800F14BF0B
:1017400040274FF48067394628460026FEF79CFE66
:101750000028D8D1B4F90C309A05B9D423F003038A
:1017600004F1470243F002030121C4E90421A381EB
:101770002260ADE70D11000870B50C46B1F90E10EE
:10178000002996B016461D4613DB6A4600F06EFD32
:1017900000280EDB019901F47041A1F50051B1FA66
:1017A00081F14FF48063490900202960336016B04D
:1017B00070BDB4F90C3000221B062A6004D540230A
:1017C0000020336016B070BD4FF48063002033609A
:1017D00016B070BD00000000000000000000000016
:1017E00001F0FF01102A2BDB10F0070F08D010F8D2
:1017F000013B013A8B422DD010F0070F42B3F6D1D6
:10180000F0B441EA012141EA014122F007047FF0EE
:1018100000070023F0E80256083C85EA010586EA45
:10182000010685FA47F5A3FA87F586FA47F6A5FA81
:1018300087F68EB9EED1F0BC01F0FF0102F007028D
:1018400032B110F8013B013A83EA010313B1F8D138
:101850000020704701387047002D06BF3546033819
:10186000073815F0010F07D1013015F4807F02BF52
:10187000013015F4C03F0130F0BC0138704700BFA3
:10188000844641EA000313F003036DD1403A41D38B
:1018900051F8043B40F8043B51F8043B40F8043B4A
:1018A00051F8043B40F8043B51F8043B40F8043B3A
:1018B00051F8043B40F8043B51F8043B40F8043B2A
:1018C00051F8043B40F8043B51F8043B40F8043B1A
:1018D00051F8043B40F8043B51F8043B40F8043B0A
:1018E00051F8043B40F8043B51F8043B40F8043BFA
:1018F00051F8043B40F8043B51F8043B40F8043BEA
:1019000051F8043B40F8043B51F8043B40F8043BD9
:10191000403ABDD2303211D351F8043B40F8043B79
:1019200051F8043B40F8043B51F8043B40F8043BB9
:1019300051F8043B40F8043B103AEDD20C3205D389
:1019400051F8043B40F8043B043AF9D2043208D081
:10195000D2071CBF11F8013B00F8013B01D30B88F3
:1019600003806046704700BF082A13D38B078DD0D1
:1019700010F003038AD0C3F10403D21ADB071CBFA3
:1019800011F8013B00F8013B80D331F8023B20F80D
:10199000023B7BE7043AD9D3013A11F8013B00F846
:1019A000013BF9D20B7803704B7843708B788370CE
:1019B0006046704788420DD98B1883420AD900EBE4
:1019C000020CBAB1624613F801CD02F801CD99427A
:1019D000F9D170470F2A0ED8034602F1FF3C4AB1F5
:1019E0000CF1010C013B8C4411F8012B03F8012F81
:1019F0006145F9D1704740EA01039B0750D1A2F13C
:101A0000100370B501F1200C23F00F0501F1100E49
:101A100000F11004AC441B095EF8105C44F8105C43
:101A20005EF80C5C44F80C5C5EF8085C44F8085CFA
:101A30005EF8045C44F8045C0EF1100EE64504F117
:101A40001004E9D1013312F00C0F01EB031102F085
:101A50000F0400EB031327D0043C24F003064FEAE5
:101A6000940C1E441C1F8E465EF8045B44F8045F11
:101A7000B442F9D10CF1010402F0030203EB840338
:101A800001EB840102F1FF3C4AB10CF1010C013B76
:101A90008C4411F8012B03F8012F6145F9D170BD79
:101AA00002F1FF3C03469BE72246EBE7704700BF8D
:101AB000704700BFF8B51446F9B1CAB106460D46E5
:101AC00000F012FCA04202D32F463846F8BD214652
:101AD0003046FEF7D9FC07460028F6D022462946B4
:101AE000FFF7CEFE30462946FEF76CFC3846F8BDBF
:101AF0002746FEF767FC3846F8BDBDE8F8401146BA
:101B0000FEF7C2BC2DE9F0478F689F420C461D4688
:101B1000164638D88246888910F4906F0ED108682E
:101B20003D462A463146FFF745FFA2682368D21B8F
:101B30002B44A26023600020BDE8F0874B6909694F
:101B400003EB4308236808EBD878A3EB01096B1C6F
:101B50004FEA68084B444345424684BF9846424694
:101B6000430513D511465046FEF78EFC074608B3D1
:101B700021694A46FFF784FEA38923F4906343F06A
:101B80008003A38107E008681F46CAE75046FFF7B5
:101B900091FF074650B107EB0900A8EB0903276145
:101BA000C4F81480A36020602F46BAE7216950462C
:101BB000FEF708FC0C23CAF80030A38943F0400369
:101BC0004FF0FF30A381B7E72DE9F04F936883B062
:101BD0009146002B6ED017688D6880460C460868C9
:101BE000083744E0A38913F4906F2ED0D4E904158C
:101BF000A0EB010A05EB450505EBD5750AEB0600E0
:101C00006D100130A8422A4684BF05462A465B056E
:101C100037D511464046FEF737FC00283BD05246E8
:101C200021690190FFF72CFEA289019B22F49062AA
:101C300042F08002A281A5EB0A0203EB0A00656173
:101C4000A260236120603546B24659465246FFF7EE
:101C5000B1FEA068D9F808102368451B8E1B03EB62
:101C60000A00A5602060C9F808601EB3083757E96C
:101C700002B6002EFAD0B542AA46B3D93546B246CE
:101C8000E3E74046FFF716FF03460028D3D121695A
:101C90004046FEF797FB0C23C8F80030A3890022CA
:101CA00043F040034FF0FF30A381C9E9012203B0A4
:101CB000BDE8F08F0020C9F8040003B0BDE8F08F44
:101CC0002DE9F04F92468A8915069DB088468146D7
:101CD0001C4603D50A69002A00F0EF800022099211
:101CE0009AF800307E4D039420228DF8292030226E
:101CF0008DF82A200126002B72D0544603E014F8F8
:101D0000013F002B76D0252BF9D1B4EB0A0B74D10F
:101D10002278002A64D000234FF0FF32CDE905235A
:101D2000049307938DF853301A93013404E0049A16
:101D300006FA03F313430493A246052214F8011B89
:101D40002846FFF74DFD431B0028F0D1049BD80621
:101D500044BF20228DF8532019079AF8001044BF81
:101D60002B228DF853202A2954D1039A116804326A
:101D7000002903927CDB07919AF801100AF1010A0D
:101D80002E2959D0574C03222046FFF729FD40B198
:101D9000049B001B402404FA00F0034304930AF15F
:101DA000010A1AF8011B50488DF828100622FFF787
:101DB00017FD002862D04D4B002B52D003AA009291
:101DC0004B4B424604A94846AFF3008007467A1CB5
:101DD00006D0099B3B4409939AF80030002B8CD124
:101DE000B8F80C305B0654BF09984FF0FF301DB0B7
:101DF000BDE8F08FB4EB0A0BF2D05B465246414689
:101E00004846FFF77FFE0130EAD0099B22785B4409
:101E100009937EE7A1F13002092AB1D8079B1AF88D
:101E2000011F03EB830302EB4303A1F13002092AF4
:101E3000F5D92E290793A5D19AF801102A2927D17F
:101E4000039B9AF802101A6805920433002A0AF1DB
:101E500002000393B8BF4FF0FF338246B8BF05932B
:101E600090E7039B073323F0070308330393B0E79E
:101E7000494243F00203079104937DE703AA0092CD
:101E80001B4B424604A94846FEF782FD07469EE7E3
:101E9000A1F130020023092A05930AF1010A3FF655
:101EA00071AF1AF8011F03EB830302EB4303A1F1A7
:101EB0003002092AF5D9059364E74021FEF7E4FAD8
:101EC000C8F80000C8F8100018B14022C8F8142063
:101ED00004E70C23C9F800304FF0FF3087E700BF5C
:101EE0000C69000814690008186900080000000067
:101EF000051B000838B5446C0CB1002038BD8021AA
:101F00000546FEF7C1FA0246686430B1031F7C3211
:101F100043F8044F9342FBD1EFE74FF0FF3038BD59
:101F20001F29F8B5054608D8466C0C4617464EB131
:101F300056F8240046F82470F8BD162303604FF0CD
:101F4000FF30F8BD8021FEF79FFA0646686440B175
:101F5000031F00F17C05002143F8041F9D42FBD1C3
:101F6000E6E74FF0FF30F8BD1F2938B5054620D809
:101F7000426C0C466AB152F8213053B1012B16D095
:101F8000591C10D00025204642F824509847284676
:101F900038BD284600F0F8F8224601462846BDE83C
:101FA000384000F0DBB816230360012038BD002064
:101FB00038BD162303604FF0FF3038BD1F292AD8E3
:101FC000426C38B50C46054682B152F8243002EB1B
:101FD00084024BB1591C19D0012B15D00025204685
:101FE00015609847284638BD012038BD8021FEF78E
:101FF0004BFA0246686458B1031F00217C3043F855
:10200000041F9842FBD1E0E7032038BD022038BD11
:102010004FF0FF3038BD4FF0FF30704738B5144BEC
:102020001F281D681FD86A6C044662B152F8203020
:102030004BB1012B15D0591C0FD0002542F8205070
:102040009847284638BD284600F09EF822460146AB
:102050002846BDE8384000F081B816232B600120E7
:1020600038BD002038BD16232B604FF0FF3038BD3F
:1020700000000020124B1F2870B51E6808D80D46BE
:10208000716C044649B151F8240041F8245070BDE8
:10209000162333604FF0FF3070BD80213046FEF7CD
:1020A000F3F90146706440B1031F00F17C0C00227B
:1020B00043F8042F6345FBD1E5E74FF0FF3070BDD7
:1020C0000000002038B50B4B1D686C6C0CB1002073
:1020D00038BD80212846FEF7D7F9686438B1031F60
:1020E00000F17C0243F8044F9342FBD1EFE74FF03D
:1020F000FF3038BD0000002038B5174B1F281D6881
:1021000026D86A6C044682B152F8243002EB84026D
:102110004BB1591C1AD0012B16D000252046156052
:102120009847284638BD012038BD80212846FEF753
:10213000ABF90246686458B1031F00217C3043F8B4
:10214000041F8342FBD1DFE7032038BD022038BDE6
:102150004FF0FF3038BD00BF0000002070B50C46C6
:10216000084D03460026204611461C462E6000F00E
:10217000FBF8431C00D070BD2B68002BFBD0236004
:1021800070BD00BFB802002000F0DEB810B50C46EC
:10219000B1F90E1000F0B2F8002803DB636D0344C0
:1021A000636510BDA38923F48053A38110BD00BFD4
:1021B000002070472DE9F0410C46B1F90C101F4684
:1021C000CB05054616460BD421F48051A1813B4630
:1021D000B4F90E1032462846BDE8F04100F01EB8B2
:1021E000B4F90E100223002200F068F8B4F90C10C4
:1021F000EAE700BF10B50C46B1F90E1000F05EF82A
:10220000A389421C0EBF23F4805343F480536065BE
:10221000A38110BDB1F90E1000F016B838B50C4608
:10222000084D8446114620461A4600232B6064461A
:1022300000F0C0F8431C00D038BD2B68002BFBD049
:10224000236038BDB802002038B5074D002204468F
:1022500008462A6000F068F8431C00D038BD2B689F
:10226000002BFBD0236038BDB802002070B50C46AF
:10227000084D03460026204611461C462E6000F0FD
:102280005BF8431C00D070BD2B68002BFBD0236093
:1022900070BD00BFB802002038B5074D00220446CB
:1022A00008462A6000F058F8431C00D038BD2B685F
:1022B000002BFBD0236038BDB802002038B50C4697
:1022C000084D8446114620461A4600232B6064467A
:1022D00000F052F8431C00D038BD2B68002BFBD017
:1022E000236038BDB802002051F8040C0028A0F18A
:1022F0000400BCBF0B58C018704700BF38B50C466F
:10230000084D8446114620461A4600232B60644639
:1023100000F03AF8431C00D038BD2B68002BFBD0EE
:10232000236038BDB8020020024B58221A604FF0DB
:10233000FF307047B8020020024B58221A604FF05D
:10234000FF307047B8020020024B58221A604FF04D
:10235000FF307047B8020020024B58221A6000205C
:10236000704700BFB8020020024B58221A604FF09D
:10237000FF307047B8020020024B58221A604FF01D
:10238000FF307047B8020020024B58221A604FF00D
:10239000FF307047B8020020044A05491368002B3B
:1023A00008BF0B461844106018467047BC02002056
:1023B000280A0020024B58221A604FF0FF30704765
:1023C000B8020020FEE700BF53B94AB9002908BF90
:1023D00000281CBF4FF0FF314FF0FF3000F074B900
:1023E000ADF1080C6DE904CE00F006F8DDF804E06C
:1023F000DDE9022304B070472DE9F047089D04464B
:102400008E46002B4DD18A42944669D9B2FA82F2A7
:1024100052B101FA02F3C2F1200120FA01F10CFAE3
:1024200002FC41EA030E94404FEA1C48210CBEFB1B
:10243000F8F61FFA8CF708FB16E341EA034306FBA4
:1024400007F199420AD91CEB030306F1FF3080F033
:102450001F81994240F21C81023E63445B1AA4B280
:10246000B3FBF8F008FB103344EA034400FB07F722
:10247000A7420AD91CEB040400F1FF3380F00A8163
:10248000A74240F207816444023840EA0640E41B58
:1024900000261DB1D4400023C5E900433146BDE804
:1024A000F0878B4209D9002D00F0EF800026C5E9A6
:1024B000000130463146BDE8F087B3FA83F6002EBE
:1024C0004AD18B4202D3824200F2F980841A61EB36
:1024D000030301209E46002DE0D0C5E9004EDDE754
:1024E00002B9FFDEB2FA82F2002A40F09280A1EB3C
:1024F0000C014FEA1C471FFA8CFE0126200CB1FB91
:10250000F7F307FB131140EA01410EFB03F0884289
:1025100008D91CEB010103F1FF3802D2884200F216
:10252000CB804346091AA4B2B1FBF7F007FB1011A8
:1025300044EA01440EFB00FEA64508D91CEB040446
:1025400000F1FF3102D2A64500F2BB800846A4EBA1
:102550000E0440EA03409CE7C6F12007B34022FA8C
:1025600007FC4CEA030C20FA07F401FA06F31C43BB
:10257000F9404FEA1C4900FA06F3B1FBF9F8200CC8
:102580001FFA8CFE09FB181140EA014108FB0EF00E
:10259000884202FA06F20BD91CEB010108F1FF3A5E
:1025A00080F08880884240F28580A8F1020861446A
:1025B000091AA4B2B1FBF9F009FB101144EA014178
:1025C00000FB0EFE8E4508D91CEB010100F1FF3423
:1025D0006CD28E456AD90238614440EA0840A0FBBB
:1025E0000294A1EB0E01A142C846A64656D353D091
:1025F0005DB1B3EB080261EB0E0101FA07F722FAB5
:1026000006F3F1401F43C5E9007100263146BDE8DD
:10261000F087C2F12003D8400CFA02FC21FA03F340
:10262000914001434FEA1C471FFA8CFEB3FBF7F0C1
:1026300007FB10360B0C43EA064300FB0EF69E42E6
:1026400004FA02F408D91CEB030300F1FF382FD27F
:102650009E422DD9023863449B1B89B2B3FBF7F627
:1026600007FB163341EA034106FB0EF38B4208D900
:102670001CEB010106F1FF3816D28B4214D9023E41
:102680006144C91A46EA004638E72E46284605E75F
:102690000646E3E61846F8E64B45A9D2B9EB020830
:1026A00064EB0C0E0138A3E74646EAE7204694E7C0
:1026B0004046D1E7D0467BE7023B614432E73046F3
:1026C00009E76444023842E7704700BF2DE9F04152
:1026D0008AB0002405940694079408940994019400
:1026E000404B1A6B42F004021A631A6B02F00402A8
:1026F0000192019A02941A6B42F080021A631A6BDB
:1027000002F080020292029A03941A6B42F00102D4
:102710001A631A6B02F001020392039A04941A6B73
:1027200042F002021A631B6B03F002030493049B42
:10273000DFF8BC8001224FF40051404602F012FA4B
:10274000294D01221F21284602F00CFA274E0122B2
:102750004FF44071304602F005FA4FF400530593F0
:10276000012706970794089405A9404602F01AF934
:102770001F230593069707940327089705A9284662
:1027800002F010F9202305934FF4041306930794E5
:1027900005A9284602F006F94023059306940794FC
:1027A00005A9284602F0FEF8FF2305930694079436
:1027B00005A9304602F0F6F84FF440730593112353
:1027C00006930794089705A9304602F0EBF82246D5
:1027D0002146172002F0DEF9172002F013FA0AB0A2
:1027E000BDE8F081003802400000024000040240D1
:1027F0000008024072B6FEE708B50A480A4B0360BB
:102800004FF4E133436000238360C36003610C2213
:1028100042618361C36102F049FB00B908BDFFF763
:10282000E9FF00BFC00200200010014000B595B0D4
:102830003022002108A8FDF773FD002303930493C1
:102840000593069307930193214A116C41F080513F
:102850001164126C02F080520192019A02931D4A97
:10286000136823F4404343F400431360136803F4F4
:1028700040430293029B012308934FF48033099352
:1028800002230E934FF480030F93192310934FF4F8
:10289000A8731193042312930723139308A801F03C
:1028A0005DFD80B90F23039302210491002305935A
:1028B0004FF480520692079303A801F09DFF20B9C0
:1028C00015B05DF804FBFFF795FFFFF793FF00BF1E
:1028D000003802400070004008B502F0DBF9FFF755
:1028E000A5FFFFF7F3FEFFF787FF00F015FB00F0F1
:1028F00085F800F031FB00F089F8FAE70FB400B575
:10290000A3B0249A72B125AB0193802102A8FEF7EF
:10291000A9F900280CDB002810DC23B05DF804EBDB
:1029200004B070470E4B0F4AB1210F48FDF77CFCF5
:102930000E4B0C4AB6210C48FDF776FC7F2828BFC9
:102940007F204FF0FF3382B202A9094802F0DDFA7E
:102950000028E2D0074B034ABB210348FDF764FC83
:10296000446600081467000854660008646600089E
:10297000C00200207066000808B51C4B1B781BB114
:10298000A1F15303032B1BD969292AD8184B5B5C8F
:10299000FF2B26D0C3F3C20203F0070C012101FA7A
:1029A0000CFC815C41EA0C01815413F0800F13D1BF
:1029B00013F0400F18D0C37943F00203C37113E042
:1029C0000C4AD35CC3F3C20103F0070301229A400F
:1029D000435C1343435407E0027842F00102027063
:1029E000E6E70548FFF78AFF08BD00BF04030020A3
:1029F000206700088C6700088466000808B5024854
:102A0000FFF77CFF08BD00BF986600084F4BD3F866
:102A10007C234F4B9A4200D0704770B584B04B482E
:102A200003F01EFD0546002800F08E80002402946D
:102A30000394461C00E00134072C07D8335D002BBB
:102A4000F9D0E1B202A8FFF797FFF4E7002400E015
:102A50000134052C09D82B195B7A032BF8D90433E0
:102A6000D9B202A8FFF788FFF2E79DF9093013F009
:102A7000200F0CD0374B00221A70374B1A68374B97
:102A80009A420BD01C46A4464FF0000E1DE013F0F6
:102A9000400FF2D02F4B01221A70EEE7304CF2E7D4
:102AA00052080133072B09D812F0010FF8D103F1B6
:102AB0001000684410F8080C0143F1E76346C9436D
:102AC00003F8011B0EF1010E9C46BEF1FE0F03D868
:102AD000724600210B46E5E71F4B1C602378FF2B55
:102AE00021D04FF000531F4A93619DF9083013F035
:102AF000200F1BD04FF080721B498A6113F0400FEA
:102B000022D072B6194B1B6913F0400FFAD0174B45
:102B10001B6913F0400FFAD1134B4FF000729A610A
:102B20000023019308E04FF40053DCE74FF4807278
:102B3000E2E7019B01330193019B012BF9D90A4B79
:102B40004FF400729A6162B604B070BD10060020A6
:102B500074020020040300206400002068000020AC
:102B6000680100200008024000040240000002400A
:102B7000064B1B69DBB2064A1268D35CDBB2054A1E
:102B80005361054B4FF6FF725A61704700040240D3
:102B90006400002000000240003C0140FEE7FEE728
:102BA000FEE7FEE7FEE770477047704708B502F0A2
:102BB0008BF808BD08B5024800F096FE08BD00BFBE
:102BC0000803002010B582B0002400941C4B5A6CFE
:102BD00042F480425A645A6C02F480420092009A95
:102BE00001941A6C42F080521A641B6C03F08053FB
:102BF0000193019B224601216FF00B0001F0CAFFF7
:102C0000224601216FF00A0001F0C4FF2246012193
:102C10006FF0090001F0BEFF224601216FF00400B1
:102C200001F0B8FF224601216FF0030001F0B2FF6E
:102C3000224601216FF0010001F0ACFF02B010BD8F
:102C40000038024000B589B0002303930493059334
:102C500006930793026803F1804303F588339A4291
:102C600002D009B05DF804FB0021019103F5943313
:102C70005A6C42F010025A645A6C02F0100201922F
:102C8000019A02911A6B42F001021A631B6B03F066
:102C900001030293029B4FF4C06303930223049346
:102CA000032306930723079303A9024801F07AFE42
:102CB000D7E700BF0000024030B589B0002303937E
:102CC00004930593069307930368B3F1A04F01D0D3
:102CD00009B030BD00250195164C236B43F001036C
:102CE0002363236B03F001030193019B4FF4C05353
:102CF000039302230493032306930A23079303A950
:102D00000D4801F04FFE636B43F08003636302954F
:102D1000636C43F480436364636C03F48043029305
:102D2000029B2A460121432001F034FF432001F099
:102D300069FFCDE7003802400000024008B5D0F836
:102D4000000302F086FC08BD08B5D0F8000302F0CD
:102D500091FC08BD08B5D0F8000302F095FC08BD51
:102D6000704708B5D0F8000302F07CFC08BD08B538
:102D7000D0F8000302F07AFC08BD000090F8CC33D4
:102D8000012B01D00020704710B504460F48C0F851
:102D90000043C4F8D0034FF0A043036008238360CE
:102DA0000123C3600023036102228261C36100F03A
:102DB00083F940B9054800F078FE0146204602F04C
:102DC00045FC002010BDFFF715FDF3E708030020C8
:102DD00008B5D0F8D00300F06DFE012804D0022819
:102DE00004D000B1012008BD0120FCE70220FAE771
:102DF00008B5D0F8D00300F053FE08BD08B5D0F8F0
:102E0000D00300F047FE08BD08B5C82001F06EFFF2
:102E1000002008BDD0F8D0332C2000FB013090F802
:102E20003B0030B12C2000FB013383F854200020FC
:102E300070472C2000FB013383F85520F7E708B5D5
:102E400001F054FF08BD022805D8DFE800F00504B2
:102E50000200012070470220704708B5D0F8D00367
:102E600000F0ECFDFFF7EFFF08BD08B5D0F8D00388
:102E700000F0F9FDFFF7E7FF08BD08B5D0F8D00373
:102E800000F003FEFFF7DFFF08BD10B584B0D0F8F7
:102E9000D003BDF8204002949DF81C4001949DF899
:102EA0001840009400F0AFF8FFF7CDFF04B010BD5C
:102EB00008B5D0F8D00300F0EDF8FFF7C4FF08BD67
:102EC00010B584B0D0F8D0039DF824400394BDF829
:102ED00020400294079C01949DF81840009400F053
:102EE0003DF9FFF7B0FF04B010BD000004290CD07D
:102EF000052902D0022904D07047064B03221A701C
:102F00007047044B02221A707047024B01221A705C
:102F1000F2E700BF0C06002008B501220B490C485F
:102F200002F0DFF948B90B49094802F0F9F938B95C
:102F3000074802F03AFA30B908BDFFF75BFCF2E748
:102F4000FFF758FCF4E7FFF755FCF5E7ED2E000816
:102F5000100600207402002008B5024802F02FFA83
:102F600008BD00BF10060020F8B50668346A04F0FA
:102F70000F07C4F34343C4F30A14022B00D0F8BD77
:102F80000546002CFBD02C2303FB0703596C0029BA
:102F9000F5D02C2303FB07031A6D2244DB6C9A4205
:102FA00006D92C2000FB0755042385F86030E6E79E
:102FB0002246304600F063FE2C2303FB07535A6C75
:102FC00022445A641A6D22441A6506EB4716D6F855
:102FD0001025C2F3C942B3F84030A342CFD1002A32
:102FE000CDD0D6F8003523F0804343F00043C6F837
:102FF00000352C2303FB075595F8543083F001036B
:1030000085F85430BBE7F0B585B004469DF82850EC
:103010009DF82C60BDF8307090F8F802012837D088
:10302000012084F8F8022C2000FB01404FF0000C36
:1030300080F83DC080F83830A0F8407080F8391032
:1030400080F83F6002F07F0C80F83AC012F0800FE9
:1030500016D12C2000FB01404FF0000C80F83BC043
:103060002C2000FB014080F83C500297019600950F
:10307000206800F054FF002384F8F83205B0F0BD5A
:103080002C2000FB01404FF0010C80F83BC0E7E72B
:103090000220F3E790F8F832012B0BD010B504466C
:1030A000012380F8F832006800F0D2FF002084F895
:1030B000F80210BD0220704700284DD070B58AB0CC
:1030C0000446056890F8F932002B40D0032384F8B9
:1030D000F932EB6B13F4807F01D100232361206868
:1030E00000F061FDA4465CF8106BEE46BCE80F00F2
:1030F000AEE80F00BCE80F00AEE80F009CE803004C
:103100008EE80300251D95E80E00304600F000FD16
:103110000121206800F0E5FDA4465CF8106BEE4646
:10312000BCE80F00AEE80F00BCE80F00AEE80F00EF
:103130009CE803008EE8030095E80E00304600F09E
:1031400001FE012384F8F93200200AB070BD80F836
:10315000F832FFF7B1FDB9E70120704770B59DF86F
:103160001050BDF818604FF02C0C0CFB010C8CF8C3
:103170003B208CF83F307DB964464FF0030C84F857
:1031800042C09DF81CC084F83DC0032B00F2818032
:10319000DFE803F00A7929512C2404FB01044FF0E5
:1031A000020C84F842C0F0E7012D72D1002A70D1E0
:1031B0002EB92C2303FB0103012283F855202C2375
:1031C00003FB010393F8553033B92C2303FB0103B0
:1031D000002283F842205CE02C2303FB010302223F
:1031E00083F8422055E092B92C2303FB010393F8A6
:1031F00055302BB92C2303FB010383F8422048E010
:103200002C2303FB0103022283F8422041E02C23FC
:1032100003FB010393F8543033B92C2303FB010360
:10322000002283F8422034E02C2303FB0103022216
:1032300083F842202DE092B92C2303FB010393F87D
:1032400055302BB92C2303FB010383F8422020E0E7
:103250002C2303FB0103022283F8422019E02C23D4
:1032600003FB010393F8543033B92C2303FB010310
:10327000002283F842200CE02C2303FB01030222EE
:1032800083F8422005E02C2303FB0103002283F88E
:1032900042202C2301FB03F3C218059C5464D6641E
:1032A000002482F86040146582F8391082F8614089
:1032B00003F13801027C0144006800F04FFF70BD4B
:1032C00030B583B004460568D5F840340193D5F88D
:1032D00040340093009B23F02E030093019B13F0D6
:1032E000020F07D0019B13F0010F25D1009B43F083
:1032F00002030093019B13F0080F10D0009B43F0D2
:1033000008030093019B13F0040F2DD0A369022B37
:1033100015D0E368012B22D02046FFF722FD019B48
:1033200013F0200F03D0009B43F020030093009B79
:10333000C5F8403403B030BDFFF706FDD6E7019B6A
:1033400003F4C023B3F5802F04D00121206800F0DE
:1033500075FDE1E70221206800F070FDDCE74EF624
:103360006022C5F80424D7E72046FFF700FDD6E722
:10337000F8B504460E46076807EB411707F5A06548
:10338000AB6813F0040F0AD1AB6813F4807F49D106
:10339000AB6813F0200F52D02023AB600AE0042367
:1033A000AB602C2303FB0103062283F86120006835
:1033B00000F04EFEAB6813F4007F71D1AB6813F0E0
:1033C000010F00F09D80236943B12C2303FB0643CA
:1033D0009A6C2969C1F31201521A1A652C2303FB56
:1033E0000643012283F861200021D965AA6093F881
:1033F0003F30002B5CD0022B5AD0032B01D0012B85
:103400005CD1D7F8003543F00053C7F800352C23C2
:1034100003FB0643012283F8602031462046FFF774
:103420009FFC4BE04FF48073AB602C2303FB010344
:10343000072283F86120006800F00AFEBAE7AB6853
:1034400013F0080F13D1AB6813F4806F1BD1AB6876
:1034500013F0800FAED08023AB602C2303FB01035D
:10346000062283F86120006800F0F2FDA2E708233D
:10347000AB602C2303FB0103052283F86120006865
:1034800000F0E6FD96E74FF48063AB602C2303FB6E
:103490000103082283F86120006800F0D9FD89E764
:1034A0003146206800F0D4FD4FF40073AB60F8BDE6
:1034B0003146206800F0CCFD1023AB602369012B5E
:1034C00009D02C2101FB064494F8543083F0010309
:1034D00084F85430EBE72C2303FB06439A6CB3F8D3
:1034E0004030B2FBF3F313F0010FE0D02C2303FBC9
:1034F000064494F8543083F0010384F85430D6E73E
:10350000AB6813F0020F60D02C2303FB064393F843
:103510006130012B13D0052B23D0062B28D0082B8C
:1035200026D0032B42D0072B0FD12C2303FB0643BD
:10353000DA6D0132DA65042283F8602005E02C237D
:1035400003FB0643012283F860200223AB602C2397
:1035500003FB064393F8602031462046FFF700FC4A
:10356000A5E72C2303FB0643052283F86020ECE744
:103570002C2202FB0642D36D0133D365022B06D900
:1035800013460022DA65042283F86020DDE72C234D
:1035900003FB0643022283F86020D7F8003523F0AE
:1035A000804343F00043C7F80035CEE72C2303FBEC
:1035B0000643022283F86020D7F8003523F08043C9
:1035C00043F00043C7F80035BFE7AB6813F0100FB6
:1035D0003FF46DAF2C2303FB064393F83F30032BDE
:1035E0000CD00BB1022B06D12C2303FB0643002287
:1035F000DA65236963B11023AB6058E72C2303FB22
:1036000006430022DA653146206800F021FDF2E72A
:103610002C2303FB0643032283F8612031462068F4
:1036200000F016FDE7E738B5036803EB411202F539
:10363000A065AC6814F0040F19D1AC6814F0200F29
:1036400021D02023AB602C2303FB010393F83D30F2
:10365000012B17D12C2303FB0103002283F83D200B
:10366000022283F86020006800F0F2FC0AE00423E4
:10367000AB602C2303FB0103062283F86120006862
:1036800000F0E6FC38BDAC6814F4007F1FD1AC68D4
:1036900014F0010F22D02C2303FB01030022DA6572
:1036A000AB6813F0400F07D02C2303FB010301226A
:1036B00083F83D204023AB600122AA602C2303FB4A
:1036C000010383F86120006800F0C2FCDAE74FF4E0
:1036D0000073AB60006800F0BBFCD3E7AC6814F08B
:1036E000400F24D1AC6814F0080F31D1AC6814F04D
:1036F000100F39D02C2202FB01020024D4650324D0
:1037000082F8614092F83D205AB92C2202FB010256
:1037100092F83C202AB92C2202FB0102012082F8F7
:103720003D00184600F094FC1023AB60AAE72C2261
:1037300002FB0100042280F86120012280F83D2074
:103740000022C265184600F083FC4023AB6099E775
:103750000823AB602C2303FB0103052283F86120BF
:10376000006800F075FC8DE7AC6814F0800F25D080
:10377000026982B12C2202FB0102D36D0133D365B1
:10378000022B12D82C2303FB0103022283F86020B2
:103790008023AB6076E72C2202FB0102062082F830
:1037A0006100184600F054FCF2E713460022DA6587
:1037B000042283F86020FFF7D3FAE9E7AC6814F439
:1037C000806F23D1AB6813F0020F3FF45BAF2C2363
:1037D00003FB010393F86130012B24D0032B56D057
:1037E000042B64D0052B69D0062B01D0082B54D1B3
:1037F0002C2404FB0104E36D0133E365022B64D93F
:103800000022E265042284F8602046E02C2202FBBC
:103810000102082082F86100184600F019FC4FF4FC
:103820008063AB602EE72C2303FB0103012283F8A6
:10383000602093F83F30023BDBB293422DD80469FD
:1038400044B92C2303FB010393F8552082F00102B5
:1038500083F85520012C20D12C2303FB0103DB6CC2
:10386000DBB12C2202FB0102B2F840201344013BE1
:10387000B3FBF2F313F0010F0FD02C2303FB010372
:1038800093F8552082F0010283F8552005E02C239F
:1038900003FB0103022283F860200223AB602C2388
:1038A00003FB010393F86020FFF75AFAEAE62C23A2
:1038B00003FB0103022283F86020EEE72C2303FBC5
:1038C0000103052283F86020E7E72C2303FB0103B3
:1038D000022483F86040D2F8003523F0804343F09F
:1038E0000043C2F80035D8E7F8B504460568284615
:1038F00000F0F3F9012800D0F8BD206800F0E9F9E4
:103900000028F9D0206800F0E4F910F4001F03D07B
:1039100023684FF400125A61206800F0DAF910F4BD
:10392000801F03D023684FF480125A61206800F092
:10393000D0F910F0806F03D023684FF080625A6195
:10394000206800F0C6F910F0020F02D023680222AE
:103950005A61206800F0BDF910F0005F08D02368BC
:103960004FF000525A61D5F8403413F0010F1DD0CA
:10397000206800F0AEF910F0807F26D1206800F0BA
:10398000A8F910F0080F24D1206800F0A2F910F077
:10399000100F25D1206800F09CF910F0007FABD00B
:1039A000206800F050FB074600262CE01021284636
:1039B00000F000F9284600F025F90121206800F008
:1039C0003DFA2046FFF7C6F9D2E72046FFF778FC1C
:1039D000D4E72046FFF7B2F9236808225A61D3E7FB
:1039E0002268936923F0100393612046FFF7BCFA25
:1039F0002268936943F010039361CBE7F1B220464C
:103A0000FFF711FE0136A368B34212D906F00F0387
:103A100027FA03F313F0010FF4D005EB4613D3F8A4
:103A2000003513F4004FE9D0F1B22046FFF7A0FCB7
:103A3000E8E723684FF000725A615DE790F8F832CA
:103A4000012B0ED010B50446012180F8F812006851
:103A500000F032FA206800F0A0F8002084F8F802A4
:103A600010BD0220704790F8F832012B0BD010B532
:103A70000446012380F8F832006800F025FC00209D
:103A800084F8F80210BD0220704708B5006800F005
:103A9000F4F908BD2C2303FB010090F86000704787
:103AA0002C2303FB0100006D704708B5006800F08F
:103AB00031FA08BD08B5006800F021FA08BD000021
:103AC00082B000230193019B01330193019A0F4BB4
:103AD0009A4215D80369002BF5DA00230193036994
:103AE00043F001030361019B01330193019A074BEA
:103AF0009A4208D8036913F0010FF4D1002000E0C6
:103B0000032002B070470320FBE700BF400D030015
:103B100084B010B5044603A880E80E00089B012B72
:103B20001FD1A36B23F48033A363E36823F48403DE
:103B300023F04003E360E36823F44013E3600F9B4A
:103B4000012B09D02046FFF7BBFF069B012B1BD0A2
:103B5000BDE8104004B07047E36843F48013E360AD
:103B6000F0E7E36843F04003E3602046FFF7A8FF77
:103B70000C9B23B9A36B43F48033A363E5E7A36BEA
:103B800023F48033A363E0E7A36843F00603A36054
:103B9000A36843F02003A360DAE7836843F00103DE
:103BA000836000207047836823F001038360002056
:103BB0007047000082B000230193019B0133019301
:103BC000019A0F4B9A4215D80369002BF5DA0023AE
:103BD0000193890141F020010161019B01330193AF
:103BE000019A074B9A4208D8036913F0200FF4D1C9
:103BF000002000E0032002B070470320FBE700BF75
:103C0000400D030082B000230193019B0133019317
:103C1000019A0E4B9A4213D80369002BF5DA002360
:103C2000019310230361019B01330193019A074B18
:103C30009A4208D8036913F0100FF4D1002000E075
:103C4000032002B070470320FBE700BF400D0300D4
:103C500010B59DF8084084B903334FEA930E4FF036
:103C6000000C08E000EB023303F5805351F8044BDD
:103C70001C600CF1010CF445F4D3002010BD00B51C
:103C800083B0844608464FEA920E02F003020023F6
:103C900005E00CF58051096840F8041B01337345B9
:103CA000F7D39AB10CF5805CDCF8003001934FF04B
:103CB000000C5FFA8CF3D900019BCB4000F8013B6C
:103CC0000CF1010C013A92B2002AF2D103B05DF876
:103CD00004FB4269806910407047406900F00100B0
:103CE000704738B50546C36823F0C043C360012957
:103CF00013D019BBC36843F08043C3600024012084
:103D000000F0F4FF01342846FFF7E7FF08B1312C3B
:103D1000F5D9322C14D0002038BDC36843F00053CD
:103D2000C3600024012000F0E1FF01342846FFF7C2
:103D3000D4FF0128EDD0312CF4D9EAE70120EBE7DC
:103D40000120E9E784B038B5044605A880E80E00F4
:103D50000023C4F8003EA36B43F40013A363A36BDA
:103D600023F40023A363A36B23F48023A363E36BF7
:103D700013F4807F10D0079B012B06D0D4F80034B9
:103D800023F00403C4F800340CE0D4F8003443F00A
:103D90000403C4F8003405E0D4F8003423F004032D
:103DA000C4F8003410212046FFF704FF054600B197
:103DB00001252046FFF726FF00B10125002209E07A
:103DC00004EB42134FF0FF31C3F808150021C3F88C
:103DD0000C150132069B9342F2D80023A3614FF0E9
:103DE000FF336361E36B13F4807F17D04FF40073EC
:103DF000636203F18073A3620D4BC4F80031089B2A
:103E00001BB9A36943F01003A361A269094B1343D3
:103E1000A3612846BDE8384004B070478023636240
:103E200003F5C003A362044BC4F80031E7E700BF09
:103E30000003E000080020A3E000400000F5806CD3
:103E4000D0F8003423F00303C0F80034D0F8003475
:103E500001F003021343C0F80034012903D0022902
:103E600006D0002070474BF68033CCF80430F8E7DA
:103E700041F27073CCF80430F3E730B583B00446F8
:103E800000250195D0F840340193019B23F02E03C7
:103E90000193019B43F48073C0F84034642000F028
:103EA00025FF019B23F48073C4F840340A2000F0FE
:103EB0001DFF284603B030BD82B000230193D0F827
:103EC00040340193019B23F02E030193019B13F4D3
:103ED000805F01D101290CD0019B13F4805F05D0D4
:103EE00021B9019B23F48053C0F84034002002B074
:103EF0007047019B43F48053C0F84034ECE782B034
:103F000000230193D0F8403401930198C0F341405D
:103F100002B0704700F58060806880B270472DE97C
:103F2000F84391461C469DF8245000EB411606F5D7
:103F3000A0634FF0FF329A60032D76D8DFE805F0DA
:103F40000267021840F29D42DA6019F0800F09D131
:103F5000C26B12F4807F6AD0DA6842F06002DA60E5
:103F600000270CE0DA6842F48072DA60002706E08D
:103F700040F29D62DA6019F0800F42D10027DA68C2
:103F800042F00202DA60D0F8183401F00F01012289
:103F900002FA01F11943C0F81814836943F0007361
:103FA000836119F0800F44D14FF00008FFF7A7FF9D
:103FB0009DF82030022B3FD00021A30503F0FE53D3
:103FC0004FEAC92909F4F04943EA0903AC0404F4AF
:103FD00040242343BDF82820C2F30A02134343EAD6
:103FE00008030B43C6F80035032D01D0012D05D180
:103FF000D6F8003543F00053C6F800353846BDE822
:10400000F883DA6842F48072DA600027B7E740F29A
:104010002522DA6019F0800F01D10027AFE7DA68B6
:1040200042F4C072DA600027A9E70127A7E700275A
:10403000A5E74FF40048B9E7022802D04FF4003159
:10404000BBE70021B9E700F58060406980B27047A6
:1040500010B483B00023019300EB411101F5A06C73
:10406000D1F80035C3F38143D1F80025846814F0FA
:10407000200F02D0D20F002A51D023B3022B22D01E
:10408000D1F8003543F08043C1F80035D0F8103442
:1040900013F47F0F48D1D1F8003523F00043C1F865
:1040A0000035D1F8003543F00043C1F80035019BDD
:1040B00001330193019BB3F57A7F30D8DCF80030EF
:1040C000002BF4DB2BE0D1F8003543F08043C1F83E
:1040D0000035836813F0200F21D1C36A13F47F0FDA
:1040E00017D1D1F8003523F00043C1F80035D1F8DD
:1040F000003543F00043C1F80035019B01330193C3
:10410000019BB3F57A7F0AD8DCF80030002BF4DB92
:1041100005E0D1F8003543F00043C1F80035002038
:1041200003B05DF8044B7047D1F8003543F000430D
:10413000C1F80035F3E7000000EB4111064AC1F871
:104140001025D1F8003523F0804343F00043C1F837
:1041500000350020704700BF0000088030B585B0F2
:104160004B78C46B14F4807F07D00C792CB9012AEA
:1041700016D012B94C79012C1FD04C690CB30D89A3
:1041800004EB050C0CF1FF3CBCFBF5FC1FFA8CFCAE
:10419000BCF5807F17D92D020D614FF4807C12E0B1
:1041A000CC790CB1022CE4D100EB4314D4F80C55BB
:1041B00025F07005C4F80C55DBE74978FFF7BCFF24
:1041C00070E04FF0010CCD78002D52D00C8904FB2B
:1041D0000CF40C610C69C4F312043A4D05EACC4CA2
:1041E00044EA0C0491F80AC04FEA4C7C0CF0C04C35
:1041F00000EB431344EA0C04C3F8104512B1CC6839
:10420000C3F8144500F5806CDCF8084014F0010F89
:104210000CBF4FF0010E4FF0000ED3F8005525F003
:104220000055C3F80055D3F8004544EA4E74C3F86E
:104230000045D3F800450394039C24F08044039484
:10424000CC78C4B1039C44F400440394039C44F030
:1042500000440394039CC3F800451ABBCB780BBB06
:104260004B69FBB1CA79032A15D8DFE802F0091EB1
:10427000091E0C61AEE7039C24F400440394E5E7B7
:104280000333C26A92B2C3F38F039A4203D28369A3
:1042900043F020038361002300938B8A4A78C96826
:1042A000FFF7D6FC002005B030BD0333DCF810204A
:1042B00092B2C3F38F039A42EDD2836943F08063D5
:1042C0008361E8E70000F81F30B583B0044600239F
:1042D0000193FFF768FC10212046FFF76BFC0546B1
:1042E00000B101252046FFF78DFC00B10125002219
:1042F0000AE004EB4211D1F8003523F0802343F0AB
:104300008043C1F8003501320F2AF2D9002100E0C4
:1043100001310F2916D804EB411000F5A062D0F846
:10432000003523F4004343F04043C0F80035019BBF
:1043300001330193019BB3F57A7FE9D81368002B11
:10434000F5DBE5E74FF0FF33C4F814346361204632
:10435000FFF723FC284603B030BD0000002800F022
:10436000E08170B582B00446036813F0010F3BD0C2
:104370009F4B9B6803F00C03042B2CD09C4B9B6839
:1043800003F00C03082B21D06368B3F5803F4FD0B6
:10439000B3F5A02F52D0964B1A6822F480321A60DF
:1043A0001A6822F480221A606368002B50D000F053
:1043B00097FC05468E4B1B6813F4003F14D100F0A8
:1043C0008FFC401B6428F5D90320B1E1884B5B6862
:1043D00013F4800FD8D0864B1B6813F4003F03D032
:1043E0006368002B00F09F81236813F0020F54D004
:1043F0007F4B9B6813F00C0F3ED07D4B9B6803F006
:104400000C03082B33D0E368002B68D0794B0122D2
:104410001A6000F065FC0546754B1B6813F0020F2F
:1044200054D100F05DFC401B0228F5D903207FE148
:104430006F4A136843F480331360B5E76C4B1A6816
:1044400042F480221A601A6842F480321A60ABE7A4
:1044500000F046FC0546664B1B6813F4003FC3D0D2
:1044600000F03EFC401B6428F5D9032060E1604B5E
:104470005B6813F4800FC6D15D4B1B6813F0020F0D
:1044800003D0E368012B40F05081594A136823F0B0
:10449000F803216943EAC1031360236813F0080F8E
:1044A00042D063696BB3534B0122C3F8802E00F0F6
:1044B00017FC05464E4B5B6F13F0020F34D100F032
:1044C0000FFC401B0228F5D9032031E1484A13684C
:1044D00023F0F803216943EAC1031360DDE7454B8C
:1044E00000221A6000F0FCFB0546414B1B6813F0EC
:1044F000020FD2D000F0F4FB401B0228F5D90320B4
:1045000016E13C4B0022C3F8802E00F0E9FB054683
:10451000374B5B6F13F0020F06D000F0E1FB401B3E
:104520000228F5D9032003E1236813F0040F77D0A4
:104530002F4B1B6C13F0805F33D1002301932C4B66
:104540001A6C42F080521A641B6C03F08053019382
:10455000019B0125284B1B6813F4807F23D0A3689F
:10456000012B34D0052B38D0214B1A6F22F00102D9
:104570001A671A6F22F004021A67A368002B3DD055
:1045800000F0AEFB06461A4B1B6F13F0020F46D12C
:1045900000F0A6FB801B41F288339842F3D9032038
:1045A000C6E00025D6E7144A136843F4807313600D
:1045B00000F096FB0646104B1B6813F4807FCED1AB
:1045C00000F08EFB801B0228F5D90320B0E0084ADA
:1045D000136F43F001031367CFE7054B1A6F42F0E7
:1045E00004021A671A6F42F001021A67C5E700BF9A
:1045F00000380240000047420070004000F070FBAD
:104600000646524B1B6F13F0020F08D000F068FBF8
:10461000801B41F288339842F3D9032088E0EDB93A
:10462000A369002B00F08380484A926802F00C02D4
:10463000082A51D0022B17D0454B00221A6600F0F1
:104640004FFB0446414B1B6813F0007F42D000F043
:1046500047FB001B0228F5D9032069E03B4A136C95
:1046600023F080531364DBE7394B00221A6600F015
:1046700037FB0546354B1B6813F0007F06D000F072
:104680002FFB401B0228F5D9032051E0E369226A81
:104690001343626A43EA8213A26A5208013A43EA68
:1046A0000243E26A43EA0263284A5360284B01222C
:1046B0001A6600F015FB0446244B1B6813F0007FBC
:1046C00006D100F00DFB001B0228F5D903202FE0D6
:1046D00000202DE000202BE0012B2BD01B4B5B6832
:1046E00003F48001E269914226D103F03F02216A7E
:1046F0008A4223D1616A47F6C0721A40B2EB811F29
:104700001ED103F44031A26A5208013AB1EB024FC4
:1047100018D103F07063E26AB3EB026F14D100208A
:1047200006E001207047012002E0012000E00020A7
:1047300002B070BD0120FBE70120F9E70120F7E797
:104740000120F5E70120F3E70120F1E700380240FE
:104750000000474208B5254B9B6803F00C03042B6F
:104760003FD0082B3FD1214B5A6802F03F025B68D3
:1047700013F4800F12D01D4B5968C1F388111C48E7
:104780000023A1FB0001FDF71FFE184B5B68C3F37C
:10479000014301335B00B0FBF3F025E0134B596894
:1047A000C1F3881C4FEA4C11B1EB0C006EEB0E0EFE
:1047B0004FEA8E1343EA90638101091A63EB0E03FB
:1047C000DB0043EA5173C90011EB0C0C43F1000309
:1047D000990200234FEA8C2041EA9C51FDF7F4FD39
:1047E000D3E7034800E0034808BD00BF003802409B
:1047F00040787D010024F400002800F09B8070B513
:104800000D4604464F4B1B6803F007038B4208D24A
:10481000CBB24C4A1370136803F007038B4240F08D
:104820008B80236813F0020F17D013F0040F04D00D
:10483000454A936843F4E0539360236813F0080FEC
:1048400004D0414A936843F4604393603E4A9368BE
:1048500023F0F003A1680B439360236813F0010F6A
:1048600032D06368012B21D09A1E012A25D9364AFD
:10487000126812F0020F61D033498A6822F00302F5
:1048800013438B6000F02CFA06462F4B9B6803F015
:104890000C036268B3EB820F16D000F021FA801B84
:1048A00041F288339842F0D9032042E0264A126848
:1048B00012F4003FE0D101203BE0234A126812F0DD
:1048C000007FD9D1012034E01E4B1B6803F00703A1
:1048D000AB4207D9EAB21B4B1A701B6803F00703FF
:1048E000AB422DD1236813F0040F06D0164A93680B
:1048F00023F4E053E1680B439360236813F0080F3F
:1049000007D0114A936823F46043216943EAC10345
:104910009360FFF71FFF0C4B9B68C3F303130B4A15
:10492000D35CD8400A4B18600A4B186800F08CF929
:10493000002070BD012070470120FAE70120F8E750
:104940000120F6E7003C0240003802409067000872
:10495000700200206C020020014B1868704700BFF5
:104960007002002008B5FFF7F7FF044B9B68C3F304
:104970008223034AD35CD84008BD00BF0038024000
:10498000A067000808B5FFF7E7FF044B9B68C3F377
:104990004233034AD35CD84008BD00BF0038024010
:1049A000A067000800230F2B00F2D28070B582B000
:1049B00060E085685E000324B44025EA0405CC6805
:1049C000B4402C438460456825EA02054C68C4F372
:1049D00000129A402A4342605AE0DC08083450F83A
:1049E000246003F0070295000F22AA4026EA020E77
:1049F0000A69AA4042EA0E0240F824205CE0042240
:104A000000E0002202FA0EF22A430234514D45F82A
:104A10002420514A94686FEA0C0224EA0C054E687F
:104A200016F4801F01D04CEA04054B4CA560E468E5
:104A300002EA04054E6816F4001F01D04CEA040592
:104A4000454CE560646802EA04054E6816F4003FD0
:104A500001D04CEA0405404C6560246822404D6852
:104A600015F4803F01D04CEA04023B4C2260013334
:104A70000F2B6BD801229A400C6804EA020C32EA30
:104A80000404F4D14C6804F00304013C012C90D9D7
:104A90004A6802F00302032A09D0C4685D000322B9
:104AA000AA4024EA02048A68AA402243C2604A68F3
:104AB00002F00302022A90D004684FEA430E032258
:104AC00002FA0EF224EA02044A6802F0030202FA31
:104AD0000EF2224302604A6812F4403FC7D000221F
:104AE00001921E4A546C44F480445464526C02F4A3
:104AF00080420192019A9C08A51C164A52F8255042
:104B000003F003024FEA820E0F2202FA0EF225EAA8
:104B10000205134A90423FF474AF02F5806290425E
:104B20000ED002F5806290420CD002F58062904275
:104B30000AD002F5806290423FF461AF072261E73C
:104B400001225FE702225DE703225BE702B070BD4E
:104B5000704700BF00380140003C0140003802406F
:104B6000000002400AB18161704709048161704709
:104B7000074AD36823F4E0631B041B0C000200F413
:104B8000E060034343F0BF6343F40033D3607047F6
:104B900000ED00E000B5194BDB68C3F30223C3F15D
:104BA000070CBCF1040F28BF4FF0040C03F1040EF6
:104BB000BEF1060F18D9033B4FF0FF3E0EFA0CFC76
:104BC00021EA0C0199400EFA03F322EA0303194388
:104BD00000280BDB0901C9B200F1604000F561401B
:104BE00080F800135DF804FB0023E5E700F00F00F8
:104BF0000901C9B2024B1954F4E700BF00ED00E00F
:104C000014ED00E0002807DB00F01F02400901233B
:104C10009340024A42F82030704700BF00E100E0B4
:104C20000138B0F1807F0BD24FF0E0235861054A84
:104C3000F02182F823100020986107221A61704742
:104C40000120704700ED00E010B504460E4B1878C7
:104C50004FF47A73B3FBF0F30C4A1068B0FBF3F037
:104C6000FFF7DEFF68B90F2C01D901200AE000220E
:104C700021464FF0FF30FFF78DFF054B1C600020F1
:104C800000E0012010BD00BF68020020700200207B
:104C90006C02002008B50B4B1A6842F400721A60CF
:104CA0001A6842F480621A601A6842F480721A60CC
:104CB0000320FFF75DFF0F20FFF7C6FFFDF782FF20
:104CC000002008BD003C0240034A1168034B1B78DA
:104CD0000B441360704700BFE80900206802002001
:104CE000014B1868704700BFE809002038B504463A
:104CF000FFF7F6FF0546B4F1FF3F02D0044B1B78E7
:104D00001C44FFF7EDFF401BA042FAD338BD00BFA3
:104D10006802002038B504460268136923F4405342
:104D2000C1680B43136183680269134342691343EB
:104D3000C2691A430168CB6823F4164323F00C03BD
:104D40001343CB600268536923F4407381690B43BA
:104D500053610368314A934206D002F58062934260
:104D600002D0FFF7FFFD01E0FFF70CFEE369B3F5AA
:104D7000004F29D00021031849411B1841F10001BF
:104D8000C90041EA5371DB00181863684FEA8302D7
:104D90004FEA937341F10001FDF716FB204DA5FB8F
:104DA00000325109642303FB11031B013233A5FBBD
:104DB00003235B0903F0F00202EB011203F00F037F
:104DC000216813448B6038BD0023021843EB0301B4
:104DD000121841F10001C90041EA5271D2001018C5
:104DE00041F10001626892185B41FDF7EDFA0C4D4C
:104DF000A5FB00325109642303FB1103DB003233AE
:104E0000A5FB03235B095A0002F4F87202EB0112BE
:104E100003F00703216813448B60D4E700100140BE
:104E20001F85EB512DE9F84305460F461646994676
:104E3000DDF820802C68246837EA04030CBF4FF0AB
:104E4000010C4FF0000CB4452DD1B8F1FF3FF1D06B
:104E5000B8F1000F05D0FFF743FFA0EB0900404574
:104E6000E8D92A6802F10C0353E8003F23F4D07319
:104E70000C3242E800310029F3D12A6802F1140310
:104E800053E8003F23F00103143242E800310029C7
:104E9000F3D1202385F83D3085F83E30002385F896
:104EA0003C30032000E00020BDE8F88358B310B583
:104EB000044690F83D300BB3242384F83D3022683B
:104EC000D36823F40053D3602046FFF723FF226802
:104ED000136923F4904313612268536923F02A0372
:104EE00053612268D36843F40053D36000202064E8
:104EF000202384F83D3084F83E3010BD80F83C30EB
:104F0000FDF7A0FED8E7012070472DE9F04182B0FF
:104F10001E4690F83D30DBB2202B54D104460D469E
:104F20009046002953D0002A53D090F83C30012BF2
:104F300051D0012380F83C3000230364212380F802
:104F40003D30FFF7CDFE0746A4F82480A4F8268064
:104F5000A368B3F5805F05D04FF00008002384F804
:104F60003C3012E0236913B14FF00008F6E7A84681
:104F70000025F3E738F8023B2268C3F308035360C7
:104F8000E28C92B2013A92B2E284E38C9BB273B1AA
:104F900000963B46002280212046FFF743FFE0B900
:104FA000002DE7D015F8012B23685A60E8E700963A
:104FB0003B46002240212046FFF734FF78B92023EA
:104FC00084F83D3000E0022002B0BDE8F08101200D
:104FD000FAE70120F8E70220F6E70320F4E70320D0
:104FE000F2E70000034AD2F8883043F47003C2F8B5
:104FF0008830704700ED00E08446002306E003F1AE
:10500000E0020CEB82020021516001330F2BF6D934
:10501000002305E00CEB0302002182F81C11013390
:10502000B3F5007FF6D300208CF800008CF8010067
:1050300001238CF80230CCF8C4038CF818304022DD
:105040008CF806208CF819008CF81C038CF81D33A2
:105050008CF81F038CF81E03704708B50378DBB289
:105060000B2B00D008BDD0F87C33002BFAD09B6905
:105070009847F7E770B584B004464578072D00F2ED
:105080002C81DFE815F00800480069009A00BF0095
:10509000E500FE001701082100F0ACFD18B103285F
:1050A00021D0012509E194F82D33A3710125657004
:1050B00002930026019694F81D33009394F81C3354
:1050C00080222179204600F07BFEA379029301968D
:1050D00094F81D33009394F81C33324661792046CE
:1050E00000F06EFEE9E094F81E330133DBB284F881
:1050F0001E33032B03D90D2323700125DDE06179D5
:10510000204600F085FE2179204600F081FE002334
:1051100023700125D1E0122100F06CFD10B90223AB
:105120006370CAE0032840F0C88094F81E3301334E
:10513000DBB284F81E33032B02D90D232370BCE0AD
:105140006179204600F064FE2179204600F060FE7F
:10515000002363702370B0E0012100F092FD18B1CC
:10516000032824D00125A8E00220FDF768FE0125D0
:1051700084F81C5303236370A379029300260196DD
:1051800094F81D3300932B4680222179204600F0AD
:1051900017FEA3790293019694F81D33009394F8B7
:1051A0001C3332466179204600F00AFE85E00D236B
:1051B00023700023637001257FE0092100F033FD97
:1051C00018B904236370012577E0032801D0012575
:1051D00073E094F81E330133DBB284F81E33032BE3
:1051E00003D90D232370012567E06179204600F083
:1051F0000FFE2179204600F00BFE00236370237020
:1052000001255AE0B0F83A1300F00DFD18B9052356
:105210006370012551E0032801D001254DE094F889
:105220001E330133DBB284F81E33032B03D90D2365
:105230002370012541E06179204600F0E9FD2179E4
:10524000204600F0E5FD002363702370012534E063
:1052500090F8341319B90623437001252DE0FF237C
:1052600000F58E7200F0F5FC18B906236370012575
:1052700023E0032801D001251FE0062363700125E8
:105280001BE090F8351319B907234370012514E08A
:10529000FF2300F58E7200F0DCFC18B90723637061
:1052A00001250AE0032801D0012506E007236370E9
:1052B000012502E090F8365315B9284604B070BDB8
:1052C000FF2300F58E72294600F0C3FC0546002836
:1052D000F3D0032803D00125EFE70125EDE70025F2
:1052E000EBE7D8B170B50E46044680F8CC23002514
:1052F000C0F87C53C0F88053FFF77EFE84F8235338
:1053000084F8205384F8215384F822530EB1C4F852
:10531000D4632046FDF732FD002070BD02207047A7
:105320000A4651B1D0F880334BB9591CC0F88013EC
:10533000DE3340F82320002070470220704702200F
:10534000704790F83C338B4203D980F82413002037
:1053500070470220704710B5044600200BE04FF064
:105360001A0C0CFB0E4E9EF849C39C451CD0FF2B1B
:105370001AD00130C0B2012815D886464FF01A0C59
:105380000CFB004C9CF847C38C4501D0FF29F0D1A1
:105390004FF01A0C0CFB0E4C9CF848C39445DED021
:1053A000FF2AE6D1DBE7FF2010BD10B50446FDF76C
:1053B00054FD01212046FDF727FD002010BD30B52A
:1053C00087B0044602238DF8173090F82133DBB202
:1053D000012B11D02378DBB20B2B7BD8DFE813F045
:1053E0000F002100450011017A007D00EE009200BF
:1053F0009C00A600C200080103230370EAE794F8AA
:105400002033002B66D001232370C820FDF717FD41
:105410002046FDF732FD002384F81C33C4F8C8335E
:1054200058E094F82333012B0FD0D4F8C833B3F5E8
:105430007A7F13D994F81F330133DBB284F81F331A
:10544000032B08D90D23237044E0002384F81F3375
:10545000022323703EE0002323703BE00A33C4F8AC
:10546000C8330A20FDF7EBFC34E0D4F8D43313B191
:105470000421204698476420FDF7E1FC2046FDF713
:10548000A7FC84F81D03052323700021204600F0AB
:10549000ACFC60718021204600F0A7FC0146207121
:1054A000A37902930025019594F81D33009394F895
:1054B0001C338022204600F083FCA37902930195DF
:1054C00094F81D33009394F81C332A4661792046E2
:1054D00000F076FC002007B030BD2046FFF7CAFD83
:1054E0008DF817009DF81730002BF3D184F8243382
:1054F00094F83733012B02D007232370EAE70823FF
:105500002370E7E7D4F8D433002BE3D00121204601
:10551000984708232370DDE794F83D13204600F0F8
:10552000C1FB0028D6D109232370D3E794F83F3379
:1055300013F0200F02D10A232370CBE7012120466C
:1055400000F0C1FB8DF817009DF8173013B90A233E
:105550002370BFE79DF81730DBB2032BBAD10A23C3
:105560002370B7E7D4F88033002BB3D00023C4F8FE
:105570007C3373B1D4F87C33EBB19B6820469847F9
:10558000B0B906232370D4F8D433032120469847BA
:10559000A0E703F1DE0254F82220107994F84713B3
:1055A000884202D00133DBB2E3E7C4F87C23E1E7B1
:1055B0000D2323708EE70D2323708BE7D4F87C3303
:1055C0009BB11B69204698478DF817009DF817304E
:1055D00013B90B2323707DE79DF81730DBB2022B44
:1055E0007FF478AF0D23237074E70D23237071E7E8
:1055F000D4F87C33002B3FF46DAF5B6920469847AD
:1056000068E7002384F821332046FFF7F5FCD4F83F
:105610007C332BB1DB68204698470023C4F87C33E9
:10562000D4F8D43313B105212046984794F8223397
:10563000DBB2012B03D02046FDF70FFC4AE7002325
:1056400084F822332046FFF7B0FE43E7C0F8C413C6
:10565000704708B5D0F8C4230132C0F8C423FFF75F
:10566000FCFC08BD012380F823337047002380F839
:10567000233370470346012280F82023002083F85B
:10568000210383F82203704738B50446012380F8CC
:105690002133002580F8205380F82353FDF7E5FBE4
:1056A0002179204600F0B4FB6179204600F0B0FB80
:1056B000284638BD0B7803704B7843708B7891F88F
:1056C00003C043EA0C2343800B7903714B79437188
:1056D0008B798371CB79C371202B28D8082B0AD3FF
:1056E000083BDBB24FF0010C0CFA03F303F001337B
:1056F00023F480330BB94023C371082A16D90B7ADF
:105700004A7A43EA022303818B7ACA7A43EA022364
:1057100043810B7B4A7B43EA022383818B7B837328
:10572000CB7BC3730B7C03744B7C43747047402B5F
:10573000E1D1E2E70B7803704B7843708B7883708C
:10574000CB78C3700B7903714B7943718B7983717B
:10575000CB79C3710B7A0372704710B58646137804
:105760000B7053784B7093788B7092F803C081F86C
:1057700003C01379507943EA00238B8094798C71AC
:105780009BB103F478438B801BB21079527940EAC5
:10579000022212F4C06F05D1C2F30A0213438B80B8
:1057A000002003E04FF40072F8E703209EF81D3359
:1057B00073B90CF0030CBCF1010F03D0BCF1030F63
:1057C00000D010BD013CE4B20F2CFAD90320F8E759
:1057D0000CF0030CBCF1010F06D0BCF1030FF0D1AB
:1057E000002CEED16046ECE7013CE4B20F2CE8D986
:1057F0000320E6E74378032B00D070470378023B91
:105800009A4228BF1A4692B2002307E000EB030C2D
:105810009CF802C001F801CB02339BB29342F5D34E
:1058200000230B70E9E730B583B00446057E6B1E9C
:105830000A2B00F2DE80DFE803F0061035415461E8
:105840007E8A9DAAC100427900F1100100F05EFA43
:1058500002232376284603B030BD4179FDF7CEFA06
:105860000546012805D0042818D0022816D00125A5
:10587000F0E7237CE28A42B113F0800F02D10523C6
:105880002376E7E703232376E4E713F0800F02D1C2
:1058900007232376DEE709232376DBE70B23237632
:1058A0000125D7E7D0F8C433C381037982898168A1
:1058B00000F053FA042323760125CBE70179FDF7A5
:1058C0009DFA012806D0052800F09580042804D010
:1058D0000125BFE709232376F5E70B23237601256E
:1058E000B8E70125009543798289816800F01FFAA5
:1058F000D4F8C433E38106232376ABE74179FDF77F
:105900007DFA0546012807D0052808D002280AD0CC
:1059100004280CD001259DE7072323769AE70C2362
:105920002376032596E705232376012592E70B23AB
:10593000237602258EE703790022114600F00DFA46
:10594000D4F8C433E38108232376012582E7017963
:10595000FDF754FA012805D0042807D005284CD0BB
:10596000012577E70D232376002573E70B232376A4
:1059700001256FE70125009543790022114600F0CB
:10598000D6F9D4F8C433E3810A23237662E7417958
:10599000FDF734FA012805D0022807D0042809D0E1
:1059A000012557E70D232376002553E709232376A6
:1059B00001254FE70B23237601254BE7437E013377
:1059C000DBB24376022B03D801250576857041E7CB
:1059D000D0F8D433062198470025657661792046B2
:1059E00000F016FA2179204600F012FA25700225FF
:1059F00030E701252EE703252CE703252AE7037866
:105A00000A8813440B800378184470472DE9F0434B
:105A100083B005460C46097880F83813637880F81F
:105A20003933A378E07843EA0023B3F5807F28BFB9
:105A30004FF48073A5F83A33237985F83C336379C2
:105A400085F83D33A37985F83E33E37985F83F3314
:105A5000237A85F84033092902D0092385F83833A1
:105A6000092A7FD90923ADF8063000263746012ED2
:105A70006FD8B5F83A23BDF806309A4269D90DF1CE
:105A800006012046FFF7BBFF04464378042BEED106
:105A90000378092B01D009230370B14605F54E7038
:105AA0001A2306FB03F30833184421460230FFF79C
:105AB00041FE4FF0000824E01A2303FB095393F83A
:105AC0004833022B3AD11A2303FB095393F8493385
:105AD00023B90378092B01D00923037005F54E7310
